VLU209 00RELSSID17       00901221257              20081027                                                                                                                                                                                                                                                                                                                                                                                                                                                                                                                                                              
VLU210Messe Frankfurt Ausstellungen GbmH Taunusstr. 7A                      65183 Wiesbaden                    Saksa                              DEFRASDEFF   Commerzbank AG Ffm                                                                                                                          DE87500502010000038927            LUM2 TEST2                                                                                                                                  000000000150000DKK                 TT000000000000000000000000000745000037371070000007EUR000000000020140                    1   
VLU2L00000000000000000000000000000000                                                                                                                                                                                                                                                                                                                                                              ANL:17                                                                                                                                                   00000000000000000000000000000                               
VLU2P0FRASDEFF   Commerzbank AG Ffm                                                                                                                          0000000000000000000000000000000000                                                                                                                                                       0000000000000000000000000000000000                                                                                                                                                                                                                                
VLU210AEG-Telefunken                     Hameln                             D-W-1101  Hameln                   Deutschland                        DEDRESDEHH   DnB NORD                                                                                                                                    DE89370400440532013000            Testing different currencies                                                                                                                000000000100000USD                 MJ000000000000000000000000000125000037371070000007EUR000000000079697                    1   
VLU2L00000000000000000000000000000000                                                                                                                                                                                                                                                                                                                                                              ANL:41                                                                                                                                                   00000000000000000000000000000                               
VLU2P0DRESDEHH   DnB NORD                                                                                                                                    0000000000000000000000000000000000                                                                                                                                                       0000000000000000000000000000000000                                                                                                                                                                                                                                
VLU299 00RELSSID17       00000200000000000000250000                                                                                                                                                                                                                                                                                                                                                                                                                                                                                                                                                                     
VLU209 00RELSSID17       00901221257              20081027                                                                                                                                                                                                                                                                                                                                                                                                                                                                                                                                                              
VLU210Messe Frankfurt Ausstellungen GbmH Taunusstr. 7A                      65183 Wiesbaden                    Saksa                              DEFRASDEFF   Commerzbank AG Ffm                                                                                                                          DE87500502010000038927            LUM2 TEST2                                                                                                                                  000000000150000DKK                 TT000000000000000000000000000745000037371070000007EUR000000000020140                    1   
VLU2L00000000000000000000000000000000                                                                                                                                                                                                                                                                                                                                                              ANL:17                                                                                                                                                   00000000000000000000000000000                               
VLU2P0FRASDEFF   Commerzbank AG Ffm                                                                                                                          0000000000000000000000000000000000                                                                                                                                                       0000000000000000000000000000000000                                                                                                                                                                                                                                
VLU210AEG-Telefunken                     Hameln                             D-W-1101  Hameln                   Deutschland                        DEDRESDEHH   DnB NORD                                                                                                                                    DE89370400440532013000            Testing different currencies                                                                                                                000000000100000USD                 MJ000000000000000000000000000125000037371070000007EUR000000000079697                    1   
VLU2L00000000000000000000000000000000                                                                                                                                                                                                                                                                                                                                                              ANL:41                                                                                                                                                   00000000000000000000000000000                               
VLU2P0DRESDEHH   DnB NORD                                                                                                                                    0000000000000000000000000000000000                                                                                                                                                       0000000000000000000000000000000000                                                                                                                                                                                                                                
VLU299 00RELSSID17       00000200000000000000250000                                                                                                                                                                                                                                                                                                                                                                                                                                                                                                                                                                     
VLU209 00RELSSID17       00901221257              20081027                                                                                                                                                                                                                                                                                                                                                                                                                                                                                                                                                              
VLU210Messe Frankfurt Ausstellungen GbmH Taunusstr. 7A                      65183 Wiesbaden                    Saksa                              DEFRASDEFF   Commerzbank AG Ffm                                                                                                                          DE87500502010000038927            LUM2 TEST2                                                                                                                                  000000000150000DKK                 TT000000000000000000000000000745000037371070000007EUR000000000020140                    1   
VLU2L00000000000000000000000000000000                                                                                                                                                                                                                                                                                                                                                              ANL:17                                                                                                                                                   00000000000000000000000000000                               
VLU2P0FRASDEFF   Commerzbank AG Ffm                                                                                                                          0000000000000000000000000000000000                                                                                                                                                       0000000000000000000000000000000000                                                                                                                                                                                                                                
VLU210AEG-Telefunken                     Hameln                             D-W-1101  Hameln                   Deutschland                        DEDRESDEHH   DnB NORD                                                                                                                                    DE89370400440532013000            Testing different currencies                                                                                                                000000000100000USD                 MJ000000000000000000000000000125000037371070000007EUR000000000079697                    1   
VLU2L00000000000000000000000000000000                                                                                                                                                                                                                                                                                                                                                              ANL:41                                                                                                                                                   00000000000000000000000000000                               
VLU2P0DRESDEHH   DnB NORD                                                                                                                                    0000000000000000000000000000000000                                                                                                                                                       0000000000000000000000000000000000                                                                                                                                                                                                                                
VLU299 00RELSSID17       00000200000000000000250000                                                                                                                                                                                                                                                                                                                                                                                                                                                                                                                                                                     
VLU209 00RELSSID17       00901221257              20081027                                                                                                                                                                                                                                                                                                                                                                                                                                                                                                                                                              
VLU210Messe Frankfurt Ausstellungen GbmH Taunusstr. 7A                      65183 Wiesbaden                    Saksa                              DEFRASDEFF   Commerzbank AG Ffm                                                                                                                          DE87500502010000038927            LUM2 TEST2                                                                                                                                  000000000150000DKK                 TT000000000000000000000000000745000037371070000007EUR000000000020140                    1   
VLU2L00000000000000000000000000000000                                                                                                                                                                                                                                                                                                                                                              ANL:17                                                                                                                                                   00000000000000000000000000000                               
VLU2P0FRASDEFF   Commerzbank AG Ffm                                                                                                                          0000000000000000000000000000000000                                                                                                                                                       0000000000000000000000000000000000                                                                                                                                                                                                                                
VLU210AEG-Telefunken                     Hameln                             D-W-1101  Hameln                   Deutschland                        DEDRESDEHH   DnB NORD                                                                                                                                    DE89370400440532013000            Testing different currencies                                                                                                                000000000100000USD                 MJ000000000000000000000000000125000037371070000007EUR000000000079697                    1   
VLU2L00000000000000000000000000000000                                                                                                                                                                                                                                                                                                                                                              ANL:41                                                                                                                                                   00000000000000000000000000000                               
VLU2P0DRESDEHH   DnB NORD                                                                                                                                    0000000000000000000000000000000000                                                                                                                                                       0000000000000000000000000000000000                                                                                                                                                                                                                                
VLU299 00RELSSID17       00000200000000000000250000                                                                                                                                                                                                                                                                                                                                                                                                                                                                                                                                                                     
VLU209 00RELSSID17       00901221257              20081027                                                                                                                                                                                                                                                                                                                                                                                                                                                                                                                                                              
VLU210Messe Frankfurt Ausstellungen GbmH Taunusstr. 7A                      65183 Wiesbaden                    Saksa                              DEFRASDEFF   Commerzbank AG Ffm                                                                                                                          DE87500502010000038927            LUM2 TEST2                                                                                                                                  000000000150000DKK                 TT000000000000000000000000000745000037371070000007EUR000000000020140                    1   
VLU2L00000000000000000000000000000000                                                                                                                                                                                                                                                                                                                                                              ANL:17                                                                                                                                                   00000000000000000000000000000                               
VLU2P0FRASDEFF   Commerzbank AG Ffm                                                                                                                          0000000000000000000000000000000000                                                                                                                                                       0000000000000000000000000000000000                                                                                                                                                                                                                                
VLU210AEG-Telefunken                     Hameln                             D-W-1101  Hameln                   Deutschland                        DEDRESDEHH   DnB NORD                                                                                                                                    DE89370400440532013000            Testing different currencies                                                                                                                000000000100000USD                 MJ000000000000000000000000000125000037371070000007EUR000000000079697                    1   
VLU2L00000000000000000000000000000000                                                                                                                                                                                                                                                                                                                                                              ANL:41                                                                                                                                                   00000000000000000000000000000                               
VLU2P0DRESDEHH   DnB NORD                                                                                                                                    0000000000000000000000000000000000                                                                                                                                                       0000000000000000000000000000000000                                                                                                                                                                                                                                
VLU299 00RELSSID17       00000200000000000000250000                                                                                                                                                                                                                                                                                                                                                                                                                                                                                                                                                                     
VLU209 00RELSSID17       00901221257              20081027                                                                                                                                                                                                                                                                                                                                                                                                                                                                                                                                                              
VLU210Messe Frankfurt Ausstellungen GbmH Taunusstr. 7A                      65183 Wiesbaden                    Saksa                              DEFRASDEFF   Commerzbank AG Ffm                                                                                                                          DE87500502010000038927            LUM2 TEST2                                                                                                                                  000000000150000DKK                 TT000000000000000000000000000745000037371070000007EUR000000000020140                    1   
VLU2L00000000000000000000000000000000                                                                                                                                                                                                                                                                                                                                                              ANL:17                                                                                                                                                   00000000000000000000000000000                               
VLU2P0FRASDEFF   Commerzbank AG Ffm                                                                                                                          0000000000000000000000000000000000                                                                                                                                                       0000000000000000000000000000000000                                                                                                                                                                                                                                
VLU210AEG-Telefunken                     Hameln                             D-W-1101  Hameln                   Deutschland                        DEDRESDEHH   DnB NORD                                                                                                                                    DE89370400440532013000            Testing different currencies                                                                                                                000000000100000USD                 MJ000000000000000000000000000125000037371070000007EUR000000000079697                    1   
VLU2L00000000000000000000000000000000                                                                                                                                                                                                                                                                                                                                                              ANL:41                                                                                                                                                   00000000000000000000000000000                               
VLU2P0DRESDEHH   DnB NORD                                                                                                                                    0000000000000000000000000000000000                                                                                                                                                       0000000000000000000000000000000000                                                                                                                                                                                                                                
VLU299 00RELSSID17       00000200000000000000250000                                                                                                                                                                                                                                                                                                                                                                                                                                                                                                                                                                     
VLU209 00RELSSID17       00901221257              20081027                                                                                                                                                                                                                                                                                                                                                                                                                                                                                                                                                              
VLU210Messe Frankfurt Ausstellungen GbmH Taunusstr. 7A                      65183 Wiesbaden                    Saksa                              DEFRASDEFF   Commerzbank AG Ffm                                                                                                                          DE87500502010000038927            LUM2 TEST2                                                                                                                                  000000000150000DKK                 TT000000000000000000000000000745000037371070000007EUR000000000020140                    1   
VLU2L00000000000000000000000000000000                                                                                                                                                                                                                                                                                                                                                              ANL:17                                                                                                                                                   00000000000000000000000000000                               
VLU2P0FRASDEFF   Commerzbank AG Ffm                                                                                                                          0000000000000000000000000000000000                                                                                                                                                       0000000000000000000000000000000000                                                                                                                                                                                                                                
VLU210AEG-Telefunken                     Hameln                             D-W-1101  Hameln                   Deutschland                        DEDRESDEHH   DnB NORD                                                                                                                                    DE89370400440532013000            Testing different currencies                                                                                                                000000000100000USD                 MJ000000000000000000000000000125000037371070000007EUR000000000079697                    1   
VLU2L00000000000000000000000000000000                                                                                                                                                                                                                                                                                                                                                              ANL:41                                                                                                                                                   00000000000000000000000000000                               
VLU2P0DRESDEHH   DnB NORD                                                                                                                                    0000000000000000000000000000000000                                                                                                                                                       0000000000000000000000000000000000                                                                                                                                                                                                                                
VLU299 00RELSSID17       00000200000000000000250000                                                                                                                                                                                                                                                                                                                                                                                                                                                                                                                                                                     
VLU209 00RELSSID17       00901221257              20081027                                                                                                                                                                                                                                                                                                                                                                                                                                                                                                                                                              
VLU210Messe Frankfurt Ausstellungen GbmH Taunusstr. 7A                      65183 Wiesbaden                    Saksa                              DEFRASDEFF   Commerzbank AG Ffm                                                                                                                          DE87500502010000038927            LUM2 TEST2                                                                                                                                  000000000150000DKK                 TT000000000000000000000000000745000037371070000007EUR000000000020140                    1   
VLU2L00000000000000000000000000000000                                                                                                                                                                                                                                                                                                                                                              ANL:17                                                                                                                                                   00000000000000000000000000000                               
VLU2P0FRASDEFF   Commerzbank AG Ffm                                                                                                                          0000000000000000000000000000000000                                                                                                                                                       0000000000000000000000000000000000                                                                                                                                                                                                                                
VLU210AEG-Telefunken                     Hameln                             D-W-1101  Hameln                   Deutschland                        DEDRESDEHH   DnB NORD                                                                                                                                    DE89370400440532013000            Testing different currencies                                                                                                                000000000100000USD                 MJ000000000000000000000000000125000037371070000007EUR000000000079697                    1   
VLU2L00000000000000000000000000000000                                                                                                                                                                                                                                                                                                                                                              ANL:41                                                                                                                                                   00000000000000000000000000000                               
VLU2P0DRESDEHH   DnB NORD                                                                                                                                    0000000000000000000000000000000000                                                                                                                                                       0000000000000000000000000000000000                                                                                                                                                                                                                                
VLU299 00RELSSID17       00000200000000000000250000                                                                                                                                                                                                                                                                                                                                                                                                                                                                                                                                                                     
VLU209 00RELSSID17       00901221257              20081027                                                                                                                                                                                                                                                                                                                                                                                                                                                                                                                                                              
VLU210Messe Frankfurt Ausstellungen GbmH Taunusstr. 7A                      65183 Wiesbaden                    Saksa                              DEFRASDEFF   Commerzbank AG Ffm                                                                                                                          DE87500502010000038927            LUM2 TEST2                                                                                                                                  000000000150000DKK                 TT000000000000000000000000000745000037371070000007EUR000000000020140                    1   
VLU2L00000000000000000000000000000000                                                                                                                                                                                                                                                                                                                                                              ANL:17                                                                                                                                                   00000000000000000000000000000                               
VLU2P0FRASDEFF   Commerzbank AG Ffm                                                                                                                          0000000000000000000000000000000000                                                                                                                                                       0000000000000000000000000000000000                                                                                                                                                                                                                                
VLU210AEG-Telefunken                     Hameln                             D-W-1101  Hameln                   Deutschland                        DEDRESDEHH   DnB NORD                                                                                                                                    DE89370400440532013000            Testing different currencies                                                                                                                000000000100000USD                 MJ000000000000000000000000000125000037371070000007EUR000000000079697                    1   
VLU2L00000000000000000000000000000000                                                                                                                                                                                                                                                                                                                                                              ANL:41                                                                                                                                                   00000000000000000000000000000                               
VLU2P0DRESDEHH   DnB NORD                                                                                                                                    0000000000000000000000000000000000                                                                                                                                                       0000000000000000000000000000000000                                                                                                                                                                                                                                
VLU299 00RELSSID17       00000200000000000000250000                                                                                                                                                                                                                                                                                                                                                                                                                                                                                                                                                                     
VLU209 00RELSSID17       00901221257              20081027                                                                                                                                                                                                                                                                                                                                                                                                                                                                                                                                                              
VLU210Messe Frankfurt Ausstellungen GbmH Taunusstr. 7A                      65183 Wiesbaden                    Saksa                              DEFRASDEFF   Commerzbank AG Ffm                                                                                                                          DE87500502010000038927            LUM2 TEST2                                                                                                                                  000000000150000DKK                 TT000000000000000000000000000745000037371070000007EUR000000000020140                    1   
VLU2L00000000000000000000000000000000                                                                                                                                                                                                                                                                                                                                                              ANL:17                                                                                                                                                   00000000000000000000000000000                               
VLU2P0FRASDEFF   Commerzbank AG Ffm                                                                                                                          0000000000000000000000000000000000                                                                                                                                                       0000000000000000000000000000000000                                                                                                                                                                                                                                
VLU210AEG-Telefunken                     Hameln                             D-W-1101  Hameln                   Deutschland                        DEDRESDEHH   DnB NORD                                                                                                                                    DE89370400440532013000            Testing different currencies                                                                                                                000000000100000USD                 MJ000000000000000000000000000125000037371070000007EUR000000000079697                    1   
VLU2L00000000000000000000000000000000                                                                                                                                                                                                                                                                                                                                                              ANL:41                                                                                                                                                   00000000000000000000000000000                               
VLU2P0DRESDEHH   DnB NORD                                                                                                                                    0000000000000000000000000000000000                                                                                                                                                       0000000000000000000000000000000000                                                                                                                                                                                                                                
VLU299 00RELSSID17       00000200000000000000250000                                                                                                                                                                                                                                                                                                                                                                                                                                                                                                                                                                     
VLU209 00RELSSID17       00901221257              20081027                                                                                                                                                                                                                                                                                                                                                                                                                                                                                                                                                              
VLU210Messe Frankfurt Ausstellungen GbmH Taunusstr. 7A                      65183 Wiesbaden                    Saksa                              DEFRASDEFF   Commerzbank AG Ffm                                                                                                                          DE87500502010000038927            LUM2 TEST2                                                                                                                                  000000000150000DKK                 TT000000000000000000000000000745000037371070000007EUR000000000020140                    1   
VLU2L00000000000000000000000000000000                                                                                                                                                                                                                                                                                                                                                              ANL:17                                                                                                                                                   00000000000000000000000000000                               
VLU2P0FRASDEFF   Commerzbank AG Ffm                                                                                                                          0000000000000000000000000000000000                                                                                                                                                       0000000000000000000000000000000000                                                                                                                                                                                                                                
VLU210AEG-Telefunken                     Hameln                             D-W-1101  Hameln                   Deutschland                        DEDRESDEHH   DnB NORD                                                                                                                                    DE89370400440532013000            Testing different currencies                                                                                                                000000000100000USD                 MJ000000000000000000000000000125000037371070000007EUR000000000079697                    1   
VLU2L00000000000000000000000000000000                                                                                                                                                                                                                                                                                                                                                              ANL:41                                                                                                                                                   00000000000000000000000000000                               
VLU2P0DRESDEHH   DnB NORD                                                                                                                                    0000000000000000000000000000000000                                                                                                                                                       0000000000000000000000000000000000                                                                                                                                                                                                                                
VLU299 00RELSSID17       00000200000000000000250000                                                                                                                                                                                                                                                                                                                                                                                                                                                                                                                                                                     
VLU209 00RELSSID17       00901221257              20081027                                                                                                                                                                                                                                                                                                                                                                                                                                                                                                                                                              
VLU210Messe Frankfurt Ausstellungen GbmH Taunusstr. 7A                      65183 Wiesbaden                    Saksa                              DEFRASDEFF   Commerzbank AG Ffm                                                                                                                          DE87500502010000038927            LUM2 TEST2                                                                                                                                  000000000150000DKK                 TT000000000000000000000000000745000037371070000007EUR000000000020140                    1   
VLU2L00000000000000000000000000000000                                                                                                                                                                                                                                                                                                                                                              ANL:17                                                                                                                                                   00000000000000000000000000000                               
VLU2P0FRASDEFF   Commerzbank AG Ffm                                                                                                                          0000000000000000000000000000000000                                                                                                                                                       0000000000000000000000000000000000                                                                                                                                                                                                                                
VLU210AEG-Telefunken                     Hameln                             D-W-1101  Hameln                   Deutschland                        DEDRESDEHH   DnB NORD                                                                                                                                    DE89370400440532013000            Testing different currencies                                                                                                                000000000100000USD                 MJ000000000000000000000000000125000037371070000007EUR000000000079697                    1   
VLU2L00000000000000000000000000000000                                                                                                                                                                                                                                                                                                                                                              ANL:41                                                                                                                                                   00000000000000000000000000000                               
VLU2P0DRESDEHH   DnB NORD                                                                                                                                    0000000000000000000000000000000000                                                                                                                                                       0000000000000000000000000000000000                                                                                                                                                                                                                                
VLU299 00RELSSID17       00000200000000000000250000                                                                                                                                                                                                                                                                                                                                                                                                                                                                                                                                                                     
VLU209 00RELSSID17       00901221257              20081027                                                                                                                                                                                                                                                                                                                                                                                                                                                                                                                                                              
VLU210Messe Frankfurt Ausstellungen GbmH Taunusstr. 7A                      65183 Wiesbaden                    Saksa                              DEFRASDEFF   Commerzbank AG Ffm                                                                                                                          DE87500502010000038927            LUM2 TEST2                                                                                                                                  000000000150000DKK                 TT000000000000000000000000000745000037371070000007EUR000000000020140                    1   
VLU2L00000000000000000000000000000000                                                                                                                                                                                                                                                                                                                                                              ANL:17                                                                                                                                                   00000000000000000000000000000                               
VLU2P0FRASDEFF   Commerzbank AG Ffm                                                                                                                          0000000000000000000000000000000000                                                                                                                                                       0000000000000000000000000000000000                                                                                                                                                                                                                                
VLU210AEG-Telefunken                     Hameln                             D-W-1101  Hameln                   Deutschland                        DEDRESDEHH   DnB NORD                                                                                                                                    DE89370400440532013000            Testing different currencies                                                                                                                000000000100000USD                 MJ000000000000000000000000000125000037371070000007EUR000000000079697                    1   
VLU2L00000000000000000000000000000000                                                                                                                                                                                                                                                                                                                                                              ANL:41                                                                                                                                                   00000000000000000000000000000                               
VLU2P0DRESDEHH   DnB NORD                                                                                                                                    0000000000000000000000000000000000                                                                                                                                                       0000000000000000000000000000000000                                                                                                                                                                                                                                
VLU299 00RELSSID17       00000200000000000000250000                                                                                                                                                                                                                                                                                                                                                                                                                                                                                                                                                                     
VLU209 00RELSSID17       00901221257              20081027                                                                                                                                                                                                                                                                                                                                                                                                                                                                                                                                                              
VLU210Messe Frankfurt Ausstellungen GbmH Taunusstr. 7A                      65183 Wiesbaden                    Saksa                              DEFRASDEFF   Commerzbank AG Ffm                                                                                                                          DE87500502010000038927            LUM2 TEST2                                                                                                                                  000000000150000DKK                 TT000000000000000000000000000745000037371070000007EUR000000000020140                    1   
VLU2L00000000000000000000000000000000                                                                                                                                                                                                                                                                                                                                                              ANL:17                                                                                                                                                   00000000000000000000000000000                               
VLU2P0FRASDEFF   Commerzbank AG Ffm                                                                                                                          0000000000000000000000000000000000                                                                                                                                                       0000000000000000000000000000000000                                                                                                                                                                                                                                
VLU210AEG-Telefunken                     Hameln                             D-W-1101  Hameln                   Deutschland                        DEDRESDEHH   DnB NORD                                                                                                                                    DE89370400440532013000            Testing different currencies                                                                                                                000000000100000USD                 MJ000000000000000000000000000125000037371070000007EUR000000000079697                    1   
VLU2L00000000000000000000000000000000                                                                                                                                                                                                                                                                                                                                                              ANL:41                                                                                                                                                   00000000000000000000000000000                               
VLU2P0DRESDEHH   DnB NORD                                                                                                                                    0000000000000000000000000000000000                                                                                                                                                       0000000000000000000000000000000000                                                                                                                                                                                                                                
VLU299 00RELSSID17       00000200000000000000250000                                                                                                                                                                                                                                                                                                                                                                                                                                                                                                                                                                     
VLU209 00RELSSID17       00901221257              20081027                                                                                                                                                                                                                                                                                                                                                                                                                                                                                                                                                              
VLU210Messe Frankfurt Ausstellungen GbmH Taunusstr. 7A                      65183 Wiesbaden                    Saksa                              DEFRASDEFF   Commerzbank AG Ffm                                                                                                                          DE87500502010000038927            LUM2 TEST2                                                                                                                                  000000000150000DKK                 TT000000000000000000000000000745000037371070000007EUR000000000020140                    1   
VLU2L00000000000000000000000000000000                                                                                                                                                                                                                                                                                                                                                              ANL:17                                                                                                                                                   00000000000000000000000000000                               
VLU2P0FRASDEFF   Commerzbank AG Ffm                                                                                                                          0000000000000000000000000000000000                                                                                                                                                       0000000000000000000000000000000000                                                                                                                                                                                                                                
VLU210AEG-Telefunken                     Hameln                             D-W-1101  Hameln                   Deutschland                        DEDRESDEHH   DnB NORD                                                                                                                                    DE89370400440532013000            Testing different currencies                                                                                                                000000000100000USD                 MJ000000000000000000000000000125000037371070000007EUR000000000079697                    1   
VLU2L00000000000000000000000000000000                                                                                                                                                                                                                                                                                                                                                              ANL:41                                                                                                                                                   00000000000000000000000000000                               
VLU2P0DRESDEHH   DnB NORD                                                                                                                                    0000000000000000000000000000000000                                                                                                                                                       0000000000000000000000000000000000                                                                                                                                                                                                                                
VLU299 00RELSSID17       00000200000000000000250000                                                                                                                                                                                                                                                                                                                                                                                                                                                                                                                                                                     
VLU209 00RELSSID17       00901221257              20081027                                                                                                                                                                                                                                                                                                                                                                                                                                                                                                                                                              
VLU210Messe Frankfurt Ausstellungen GbmH Taunusstr. 7A                      65183 Wiesbaden                    Saksa                              DEFRASDEFF   Commerzbank AG Ffm                                                                                                                          DE87500502010000038927            LUM2 TEST2                                                                                                                                  000000000150000DKK                 TT000000000000000000000000000745000037371070000007EUR000000000020140                    1   
VLU2L00000000000000000000000000000000                                                                                                                                                                                                                                                                                                                                                              ANL:17                                                                                                                                                   00000000000000000000000000000                               
VLU2P0FRASDEFF   Commerzbank AG Ffm                                                                                                                          0000000000000000000000000000000000                                                                                                                                                       0000000000000000000000000000000000                                                                                                                                                                                                                                
VLU210AEG-Telefunken                     Hameln                             D-W-1101  Hameln                   Deutschland                        DEDRESDEHH   DnB NORD                                                                                                                                    DE89370400440532013000            Testing different currencies                                                                                                                000000000100000USD                 MJ000000000000000000000000000125000037371070000007EUR000000000079697                    1   
VLU2L00000000000000000000000000000000                                                                                                                                                                                                                                                                                                                                                              ANL:41                                                                                                                                                   00000000000000000000000000000                               
VLU2P0DRESDEHH   DnB NORD                                                                                                                                    0000000000000000000000000000000000                                                                                                                                                       0000000000000000000000000000000000                                                                                                                                                                                                                                
VLU299 00RELSSID17       00000200000000000000250000                                                                                                                                                                                                                                                                                                                                                                                                                                                                                                                                                                     
VLU209 00RELSSID17       00901221257              20081027                                                                                                                                                                                                                                                                                                                                                                                                                                                                                                                                                              
VLU210Messe Frankfurt Ausstellungen GbmH Taunusstr. 7A                      65183 Wiesbaden                    Saksa                              DEFRASDEFF   Commerzbank AG Ffm                                                                                                                          DE87500502010000038927            LUM2 TEST2                                                                                                                                  000000000150000DKK                 TT000000000000000000000000000745000037371070000007EUR000000000020140                    1   
VLU2L00000000000000000000000000000000                                                                                                                                                                                                                                                                                                                                                              ANL:17                                                                                                                                                   00000000000000000000000000000                               
VLU2P0FRASDEFF   Commerzbank AG Ffm                                                                                                                          0000000000000000000000000000000000                                                                                                                                                       0000000000000000000000000000000000                                                                                                                                                                                                                                
VLU210AEG-Telefunken                     Hameln                             D-W-1101  Hameln                   Deutschland                        DEDRESDEHH   DnB NORD                                                                                                                                    DE89370400440532013000            Testing different currencies                                                                                                                000000000100000USD                 MJ000000000000000000000000000125000037371070000007EUR000000000079697                    1   
VLU2L00000000000000000000000000000000                                                                                                                                                                                                                                                                                                                                                              ANL:41                                                                                                                                                   00000000000000000000000000000                               
VLU2P0DRESDEHH   DnB NORD                                                                                                                                    0000000000000000000000000000000000                                                                                                                                                       0000000000000000000000000000000000                                                                                                                                                                                                                                
VLU299 00RELSSID17       00000200000000000000250000                                                                                                                                                                                                                                                                                                                                                                                                                                                                                                                                                                     
VLU209 00RELSSID17       00901221257              20081027                                                                                                                                                                                                                                                                                                                                                                                                                                                                                                                                                              
VLU210Messe Frankfurt Ausstellungen GbmH Taunusstr. 7A                      65183 Wiesbaden                    Saksa                              DEFRASDEFF   Commerzbank AG Ffm                                                                                                                          DE87500502010000038927            LUM2 TEST2                                                                                                                                  000000000150000DKK                 TT000000000000000000000000000745000037371070000007EUR000000000020140                    1   
VLU2L00000000000000000000000000000000                                                                                                                                                                                                                                                                                                                                                              ANL:17                                                                                                                                                   00000000000000000000000000000                               
VLU2P0FRASDEFF   Commerzbank AG Ffm                                                                                                                          0000000000000000000000000000000000                                                                                                                                                       0000000000000000000000000000000000                                                                                                                                                                                                                                
VLU210AEG-Telefunken                     Hameln                             D-W-1101  Hameln                   Deutschland                        DEDRESDEHH   DnB NORD                                                                                                                                    DE89370400440532013000            Testing different currencies                                                                                                                000000000100000USD                 MJ000000000000000000000000000125000037371070000007EUR000000000079697                    1   
VLU2L00000000000000000000000000000000                                                                                                                                                                                                                                                                                                                                                              ANL:41                                                                                                                                                   00000000000000000000000000000                               
VLU2P0DRESDEHH   DnB NORD                                                                                                                                    0000000000000000000000000000000000                                                                                                                                                       0000000000000000000000000000000000                                                                                                                                                                                                                                
VLU299 00RELSSID17       00000200000000000000250000                                                                                                                                                                                                                                                                                                                                                                                                                                                                                                                                                                     
VLU209 00RELSSID17       00901221257              20081027                                                                                                                                                                                                                                                                                                                                                                                                                                                                                                                                                              
VLU210Messe Frankfurt Ausstellungen GbmH Taunusstr. 7A                      65183 Wiesbaden                    Saksa                              DEFRASDEFF   Commerzbank AG Ffm                                                                                                                          DE87500502010000038927            LUM2 TEST2                                                                                                                                  000000000150000DKK                 TT000000000000000000000000000745000037371070000007EUR000000000020140                    1   
VLU2L00000000000000000000000000000000                                                                                                                                                                                                                                                                                                                                                              ANL:17                                                                                                                                                   00000000000000000000000000000                               
VLU2P0FRASDEFF   Commerzbank AG Ffm                                                                                                                          0000000000000000000000000000000000                                                                                                                                                       0000000000000000000000000000000000                                                                                                                                                                                                                                
VLU210AEG-Telefunken                     Hameln                             D-W-1101  Hameln                   Deutschland                        DEDRESDEHH   DnB NORD                                                                                                                                    DE89370400440532013000            Testing different currencies                                                                                                                000000000100000USD                 MJ000000000000000000000000000125000037371070000007EUR000000000079697                    1   
VLU2L00000000000000000000000000000000                                                                                                                                                                                                                                                                                                                                                              ANL:41                                                                                                                                                   00000000000000000000000000000                               
VLU2P0DRESDEHH   DnB NORD                                                                                                                                    0000000000000000000000000000000000                                                                                                                                                       0000000000000000000000000000000000                                                                                                                                                                                                                                
VLU299 00RELSSID17       00000200000000000000250000                                                                                                                                                                                                                                                                                                                                                                                                                                                                                                                                                                     
VLU209 00RELSSID17       00901221257              20081027                                                                                                                                                                                                                                                                                                                                                                                                                                                                                                                                                              
VLU210Messe Frankfurt Ausstellungen GbmH Taunusstr. 7A                      65183 Wiesbaden                    Saksa                              DEFRASDEFF   Commerzbank AG Ffm                                                                                                                          DE87500502010000038927            LUM2 TEST2                                                                                                                                  000000000150000DKK                 TT000000000000000000000000000745000037371070000007EUR000000000020140                    1   
VLU2L00000000000000000000000000000000                                                                                                                                                                                                                                                                                                                                                              ANL:17                                                                                                                                                   00000000000000000000000000000                               
VLU2P0FRASDEFF   Commerzbank AG Ffm                                                                                                                          0000000000000000000000000000000000                                                                                                                                                       0000000000000000000000000000000000                                                                                                                                                                                                                                
VLU210AEG-Telefunken                     Hameln                             D-W-1101  Hameln                   Deutschland                        DEDRESDEHH   DnB NORD                                                                                                                                    DE89370400440532013000            Testing different currencies                                                                                                                000000000100000USD                 MJ000000000000000000000000000125000037371070000007EUR000000000079697                    1   
VLU2L00000000000000000000000000000000                                                                                                                                                                                                                                                                                                                                                              ANL:41                                                                                                                                                   00000000000000000000000000000                               
VLU2P0DRESDEHH   DnB NORD                                                                                                                                    0000000000000000000000000000000000                                                                                                                                                       0000000000000000000000000000000000                                                                                                                                                                                                                                
VLU299 00RELSSID17       00000200000000000000250000                                                                                                                                                                                                                                                                                                                                                                                                                                                                                                                                                                     
VLU209 00RELSSID17       00901221257              20081027                                                                                                                                                                                                                                                                                                                                                                                                                                                                                                                                                              
VLU210Messe Frankfurt Ausstellungen GbmH Taunusstr. 7A                      65183 Wiesbaden                    Saksa                              DEFRASDEFF   Commerzbank AG Ffm                                                                                                                          DE87500502010000038927            LUM2 TEST2                                                                                                                                  000000000150000DKK                 TT000000000000000000000000000745000037371070000007EUR000000000020140                    1   
VLU2L00000000000000000000000000000000                                                                                                                                                                                                                                                                                                                                                              ANL:17                                                                                                                                                   00000000000000000000000000000                               
VLU2P0FRASDEFF   Commerzbank AG Ffm                                                                                                                          0000000000000000000000000000000000                                                                                                                                                       0000000000000000000000000000000000                                                                                                                                                                                                                                
VLU210AEG-Telefunken                     Hameln                             D-W-1101  Hameln                   Deutschland                        DEDRESDEHH   DnB NORD                                                                                                                                    DE89370400440532013000            Testing different currencies                                                                                                                000000000100000USD                 MJ000000000000000000000000000125000037371070000007EUR000000000079697                    1   
VLU2L00000000000000000000000000000000                                                                                                                                                                                                                                                                                                                                                              ANL:41                                                                                                                                                   00000000000000000000000000000                               
